:0400000051EF15F0B7
:1010000000010000000A00000064000000E8030086
:101010000010270000A086010040420F0080969833
:101020000000E1F50500CA9A3B00803F0020410026
:10103000C842007A44401C4650C34724744997185C
:101040004BBCBE4C6B6E4E03155079AD60F34971CD
:1010500000803FCDCC3DD7233C12833AB7D138C670
:101060002737388635C0D633CC2B32708930E7DB52
:101070002EE53C1E42A20D613D25642C20623D25DB
:101080002E3366202573004C65747261203D202547
:0D1090006300286E756C6C29000A0D0000CD
:10109E00420E00018E6F000E8F6FF3EF0CF0250ED7
:1010AE00A119D8B405D0A151ECEC15F0F3EF0CF06A
:1010BE00000E0001916F000E906F40C0F6FF41C010
:1010CE00F7FF000EF86E0F0EF76403D00800F55010
:1010DE0005D0F6CFE9FFF7CFEAFFEF502E0AD8A4DE
:1010EE0048D00001918D404A412A000EA06F000E9B
:1010FE009F6F29D09FC00FF0A0C010F0000E126E8F
:10110E000A0E116EA8EC15F040C0F6FF41C0F7FFB5
:10111E00000EF86E0F0EF76403D00800F55005D0E0
:10112E00F6CFE9FFF7CFEAFFEF50496E49500F2691
:10113E00000E1022D00E0F2400019F6FFF0E102004
:10114E00A06F404A412A40C0F6FF41C0F7FF000E93
:10115E00F86E0F0EF76403D00800F55005D0F6CFE9
:10116E00E9FFF7CFEAFFEF50CDEC15F0D8A082D013
:10117E00C1D7000E0001A06F000E9F6F91897AD02B
:10118E009185A5D08EC0D9FF8FC0DAFFDECF8CF04F
:10119E00DDCF8DF0020E8E27000E8F238C518D1118
:1011AE00D8A404D0920E8C6F100E8D6F000E8B6F24
:1011BE00000E8A6F03D000018A4B8B2B8A518C252F
:1011CE00496E8B518D214A6E49C0F6FF4AC0F7FF1A
:1011DE00000EF86E0F0EF76403D00800F55005D020
:1011EE00F6CFE9FFF7CFEAFFEF500009D8A4E3D717
:1011FE0000019F51A011D8B421D08A519F5D8B510F
:10120E00A059D8B01BD09FC08AF0A0C08BF016D0CA
:10121E008CC0F6FF8DC0F7FF000EF86E0F0EF76450
:10122E0003D00800F55005D0F6CFE9FFF7CFEAFF5F
:10123E00EF50ECEC15F000018C4B8D2B8A07D8A0EB
:10124E008B078A29E5E18B29D8B4C6D3E1D78EC0A6
:10125E00D9FF8FC0DAFFDF50A16F020E8E27000E6E
:10126E008F23A10E8C6F000E8D6F000E8B6F010EF3
:10127E008A6FBED74050496E41504A6E404A412A4D
:10128E0049C0F6FF4AC0F7FF000EF86E0F0EF76466
:10129E0003D00800F55005D0F6CFE9FFF7CFEAFFEF
:1012AE00EF500001A16FA151000AD8B41200630AD9
:1012BE00D8B4CDD7070AD8B40AD0020AD8B460D7AA
:1012CE000F0AD8B404D01A0AD8B45CD7CAD7070EFE
:1012DE009115D8B4C0D291A904D0000EA06F060EFD
:1012EE009F6F8EC0D9FF8FC0DAFFDECF9CF0DECFAE
:1012FE009DF0DDCF9EF0030E8E27000E8F239EAF46
:10130E0011D09CC001F09DC002F09EC003F0BBEC5A
:10131E0015F001C09CF002C09DF003C09EF0030EBC
:10132E0000019013000E936F000E926F9C519D1151
:10133E009E11D8B486D0820E496EFF0E4A6E9CC0A6
:10134E004BF09DC04CF09EC04DF09FC04EF0100E65
:10135E0005D0D8904E324D324C324B32E82EF9D762
:10136E004B504924926F000E4A20936F9207D8A0DB
:10137E00930792C00FF093C010F0000E126E030E82
:10138E00116EA8EC15F00FC092F010C093F092C041
:10139E0007F093C008F0000E0A6E0A0E096E0AECF2
:1013AE0014F007C092F008C093F0000193AF03D081
:1013BE009207D8A093079251000811EC0DF024C0AB
:1013CE0094F025C095F026C096F094C015F095C007
:1013DE0016F096C017F09CC018F09DC019F09EC074
:1013EE001AF077EC12F015C094F016C095F017C0F5
:1013FE0096F094C001F095C002F096C003F0000E76
:10140E00046E800E056E3F0E066EC2EC13F0D8B061
:10141E0005D000019207D8A0930713D094C001F015
:10142E0095C002F096C003F0000E046E200E056EFD
:10143E00410E066EC2EC13F0D8A003D00001924B01
:10144E00932B0001A0BF06D0A0511BE10D0E9F5D96
:10145E00D8B017D09CC02EF09DC02FF09EC030F09B
:10146E009F5139EC0FF024C031F025C032F026C068
:10147E0033F074EC10F02EC09CF02FC09DF030C0F5
:10148E009EF0000193BF06D0935120E10A0E925DAB
:10149E00D8B01CD09C519D119E11D8B456D09CC072
:1014AE002BF09DC02CF09EC02DF0F1EC12F02B50C5
:1014BE002C102D102E10D8A448D0000193BF45D06B
:1014CE00935104E1020E925DD8A03FD094C001F07A
:1014DE0095C002F096C003F0700E046E890E056E74
:1014EE00400E066EC2EC13F0D8B003D00001F70E1A
:1014FE0002D00001F80E9227FF0E9323925111ECA9
:10150E000DF024C094F025C095F026C096F09CC036
:10151E0001F09DC002F09EC003F094C004F095C08F
:10152E0005F096C006F04AEC11F001C098F002C02A
:10153E0099F003C09AF004C09BF0000E00019C6F5E
:10154E00000E9D6F000E9E6F33D09CC02BF09DC081
:10155E002CF09EC02DF0F1EC12F02BC098F02CC0A8
:10156E0099F02DC09AF02EC09BF09CC03AF09DC011
:10157E003BF09EC03CF098C009F099C00AF09AC0AA
:10158E000BF09BC00CF0F8EC14F009C03DF00AC053
:10159E003EF00BC03FF074EC15F03AC09CF03BC02F
:1015AE009DF03CC09EF0000E0001936F000E926FF6
:1015BE00010EA16F0A0EA119D8B41BD0A151040DB2
:1015CE00010EF324F66E100EF420F76EF86A000E7C
:1015DE00F8220900F550985D0900F5509959090057
:1015EE00F5509A590900F5509B59D8A002D0A12B5D
:1015FE00E1D7030E9015496E000E91154A6E4950B3
:10160E004A10D8B44DD02D0EECEC15F049D098C040
:10161E0001F099C002F09AC003F09BC004F00001E3
:10162E00A151040D010EF324F66E100EF420F76E88
:10163E00F86A000EF8220900F5CF05F00900F5CF83
:10164E0006F00900F5CF07F00A00F5CF08F04CECD4
:10165E0014F001C094F002C095F003C096F004C0DF
:10166E0097F094C00EF095C00FF096C010F097C092
:10167E0011F00A0E126E000E136E000E146E000E96
:10168E00156EC5EC14F00EC094F00FC095F010C09E
:10169E0096F011C097F000019451300FECEC15F05C
:1016AE000001A107A129D8B408D0B1D7300EECECB7
:1016BE0015F000019207D8A0930793BF05D0935160
:1016CE00F5E19205D8B0F2D7A0BF09D0A05104E140
:1016DE00090E9F5DD8A003D0080EA16F02D09FC047
:1016EE00A1F0A1519F5F000EA1BFFF0EA05BA15103
:1016FE00D8B403D02E0EECEC15F00001A15111EC74
:10170E000DF024C087F025C088F026C089F09CC05B
:10171E0018F09DC019F09EC01AF087C015F088C051
:10172E0016F089C017F077EC12F015C02BF016C02A
:10173E002CF017C02DF0F1EC12F02BC098F02CC04D
:10174E0099F02DC09AF02EC09BF073D098C001F086
:10175E0099C002F09AC003F09BC004F00001A151A1
:10176E00040D010EF324F66E100EF420F76EF86AD7
:10177E00000EF8220900F5CF05F00900F5CF06F0AE
:10178E000900F5CF07F00A00F5CF08F04CEC14F085
:10179E0001C094F002C095F003C096F004C097F01B
:1017AE0094C00EF095C00FF096C010F097C011F0D7
:1017BE000A0E126E000E136E000E146E000E156ED3
:1017CE00C5EC14F00EC094F00FC095F010C096F05A
:1017DE0011C097F000019451300FECEC15F098C049
:1017EE000EF099C00FF09AC010F09BC011F00001DE
:1017FE00A151040D010EF324F66E100EF420F76EB7
:10180E00F86A000EF8220900F5CF12F00900F5CFA4
:10181E0013F00900F5CF14F00A00F5CF15F0C5EC62
:10182E0014F00EC098F00FC099F010C09AF011C0CD
:10183E009BF00001A107A129D8B408D087D7300E9C
:10184E00ECEC15F000019F07D8A0A0079F51A01146
:10185E00D8B4C2D0F4D78EC0D9FF8FC0DAFFDECF96
:10186E0098F0DDCF99F0000E99BFFF0E9A6F9B6F27
:10187E00020E8E27000E8F239BAF0AD0030E9013FD
:10188E009B1F9A1F991F986D000E99239A239B23D5
:10189E009F51A011D8A408D0985199119A119B115B
:1018AE00D8A402D09F4BA02B010EA16F0A0EA11936
:1018BE00D8B41BD0A151040D010EF324F66E100EF8
:1018CE00F420F76EF86A000EF8220900F550985DC4
:1018DE000900F55099590900F5509A590900F5502B
:1018EE009B59D8A002D0A12BE1D7800EA1BF7F0EAD
:1018FE00496E9F51A15DA051800A4958D8B003D0BE
:10190E009FC0A1F010D0A051800A496EA1519F5DD9
:10191E00800EA1BF7F0E4958D8B005D0A1519F6F40
:10192E00A06B9FBFA007030E9015496E000E911578
:10193E004A6E49504A10D8B446D02D0EECEC15F034
:10194E0042D09FC049F0A0C04AF0D89049364A36DE
:10195E00D89049364A36010E4924F66E100E4A20AA
:10196E00F76EF86A000EF8220900F5CF05F00900AF
:10197E00F5CF06F00900F5CF07F00A00F5CF08F015
:10198E0098C001F099C002F09AC003F09BC004F019
:10199E004CEC14F001C00EF002C00FF003C010F0BA
:1019AE0004C011F00A0E126E000E136E000E146EAD
:1019BE00000E156EC5EC14F00E50300F0001A16F25
:1019CE00A151ECEC15F000019F07D8A0A0079F29AC
:1019DE00B8E1A029D8A4B5D74050496E41504A6EFF
:1019EE00404A412A49C0F6FF4AC0F7FF000EF86E82
:1019FE000F0EF76403D00800F55005D0F6CFE9FFBF
:101A0E00F7CFEAFFEF500001A16FA151D8B4120039
:101A1E0056EF08F02A6E2AAE13D12A6C2A50800A8D
:101A2E00120FD8A09AD0000E126E030E116E000E79
:101A3E000A6E0A0E096E000E046E640E036E2A50B4
:101A4E00016E026A01BE02068DEC14F001C007F0B1
:101A5E0002C008F00AEC14F0090E07240F6E000EF7
:101A6E000820106EA8EC15F0500E0F24F66E100E16
:101A7E001020F76EF86A000EF8220900F5CF18F064
:101A8E000900F5CF19F00A00F5CF1AF0000E0A6E14
:101A9E00640E096E2A50076E086A07BE08060AEC25
:101AAE0014F0120E07240F6E000E0820106E000E9A
:101ABE00126E030E116EA8EC15F0500E0F24F66E7A
:101ACE00100E1020F76EF86A000EF8220900F5CFFE
:101ADE0015F00900F5CF16F00A00F5CF17F077ECE8
:101AEE0012F015C027F016C028F017C029F027C035
:101AFE0015F028C016F029C017F0000E126E030E56
:101B0E00116E000E046E0A0E036E2A50016E026AEA
:101B1E0001BE02068DEC14F001C00FF002C010F0F1
:101B2E00A8EC15F0500E0F24F66E100E1020F76E66
:101B3E00F86A000EF8220900F5CF18F00900F5CF6B
:101B4E0019F00A00F5CF1AF077EC12F015C024F058
:101B5E0016C025F017C026F012002A50800A750F05
:101B6E00D8A059D0000E0A6E0A0E096E2A50076EC2
:101B7E00086A07BE08060AEC14F0090E07240F6E59
:101B8E00000E0820106E000E126E030E116EA8ECE1
:101B9E0015F0500E0F24F66E100E1020F76EF86A28
:101BAE00000EF8220900F5CF15F00900F5CF16F05A
:101BBE000A00F5CF17F0000E126E030E116E000E16
:101BCE00046E0A0E036E2A50016E026A01BE0206F0
:101BDE008DEC14F001C00FF002C010F0A8EC15F05F
:101BEE00500E0F24F66E100E1020F76EF86A000ECF
:101BFE00F8220900F5CF18F00900F5CF19F00A0008
:101C0E00F5CF1AF077EC12F015C024F016C025F0BF
:101C1E0017C026F012002A50030D500EF324F66E54
:101C2E00100EF420F76EF86A000EF8220900F5CFB8
:101C3E0024F00900F5CF25F00A00F5CF26F01200AA
:101C4E002A50800A120FD8A09AD0000E126E030EE0
:101C5E00116E000E0A6E0A0E096E000E046E640EF0
:101C6E00036E2A50016E026A01BE02068DEC14F05C
:101C7E0001C007F002C008F00AEC14F0090E0724A8
:101C8E000F6E000E0820106EA8EC15F0290E0F2412
:101C9E00F66E100E1020F76EF86A000EF82209008C
:101CAE00F5CF18F00900F5CF19F00A00F5CF1AF0AC
:101CBE00000E0A6E640E096E2A50076E086A07BE81
:101CCE0008060AEC14F0120E07240F6E000E082000
:101CDE00106E000E126E030E116EA8EC15F0290E8A
:101CEE000F24F66E100E1020F76EF86A000EF82212
:101CFE000900F5CF15F00900F5CF16F00A00F5CF63
:101D0E0017F077EC12F015C027F016C028F017C0A8
:101D1E0029F027C015F028C016F029C017F0000EC4
:101D2E00126E030E116E000E046E0A0E036E2A5012
:101D3E00016E026A01BE02068DEC14F001C00FF0B6
:101D4E0002C010F0A8EC15F0290E0F24F66E100E3E
:101D5E001020F76EF86A000EF8220900F5CF18F081
:101D6E000900F5CF19F00A00F5CF1AF077EC12F052
:101D7E0015C024F016C025F017C026F012002A5008
:101D8E00800A750FD8A059D0000E0A6E0A0E096E81
:101D9E002A50076E086A07BE08060AEC14F0090EF0
:101DAE0007240F6E000E0820106E000E126E030E2A
:101DBE00116EA8EC15F0290E0F24F66E100E1020E1
:101DCE00F76EF86A000EF8220900F5CF15F009003B
:101DDE00F5CF16F00A00F5CF17F0000E126E030EB7
:101DEE00116E000E046E0A0E036E2A50016E026A08
:101DFE0001BE02068DEC14F001C00FF002C010F00F
:101E0E00A8EC15F0290E0F24F66E100E1020F76EAA
:101E1E00F86A000EF8220900F5CF18F00900F5CF88
:101E2E0019F00A00F5CF1AF077EC12F015C024F075
:101E3E0016C025F017C026F012002A50030D290EE9
:101E4E00F324F66E100EF420F76EF86A000EF822E8
:101E5E000900F5CF24F00900F5CF25F00A00F5CFE3
:101E6E0026F012002D6E6D0E2D64A8D0000E126E8F
:101E7E00030E116E000E0A6E0A0E096E000E046E2F
:101E8E00640E036E2DC001F0026A8DEC14F001C0D9
:101E9E0007F002C008F00AEC14F0090E07240F6ECA
:101EAE00000E0820106EA8EC15F0500E0F24F66EE2
:101EBE00100E1020F76EF86A000EF8220900F5CF0A
:101ECE0018F00900F5CF19F00A00F5CF1AF0000E40
:101EDE000A6E640E096E2DC007F0086A0AEC14F043
:101EEE00120E07240F6E000E0820106E000E126EDA
:101EFE00030E116EA8EC15F0500E0F24F66E100E98
:101F0E001020F76EF86A000EF8220900F5CF15F0D2
:101F1E000900F5CF16F00A00F5CF17F077EC12F0A6
:101F2E0015C02AF016C02BF017C02CF0000E126E42
:101F3E00030E116E000E046E0A0E036E2DC001F01C
:101F4E00026A8DEC14F001C00FF002C010F0A8EC84
:101F5E0015F0500E0F24F66E100E1020F76EF86A64
:101F6E00000EF8220900F5CF18F00900F5CF19F090
:101F7E000A00F5CF1AF02AC015F02BC016F02CC0AF
:101F8E0017F077EC12F015C027F016C028F017C026
:101F9E0029F027C015F028C016F029C017F0000E42
:101FAE00186E000E196E3F0E1A6E77EC12F015C0F9
:101FBE0024F016C025F017C026F012000A0E2D646C
:101FCE0069D0000E126E030E116E000E046E0A0E14
:101FDE00036E2DC001F0026A8DEC14F001C00FF0FB
:101FEE0002C010F0A8EC15F0500E0F24F66E100E75
:101FFE001020F76EF86A000EF8220900F5CF18F0DF
:10200E000900F5CF19F00A00F5CF1AF0000E0A6E8E
:10201E000A0E096E2DC007F0086A0AEC14F0090EBC
:10202E0007240F6E000E0820106E000E126E030EA7
:10203E00116EA8EC15F0500E0F24F66E100E102037
:10204E00F76EF86A000EF8220900F5CF15F00900B8
:10205E00F5CF16F00A00F5CF17F077EC12F015C099
:10206E002AF016C02BF017C02CF02AC015F02BC08A
:10207E0016F02CC017F0000E186E000E196E3F0EE3
:10208E001A6E77EC12F015C024F016C025F017C0AA
:10209E0026F012002D50030D500EF324F66E100E86
:1020AE00F420F76EF86A000EF8220900F5CF15F04D
:1020BE000900F5CF16F00A00F5CF17F0000E186ED6
:1020CE00000E196E3F0E1A6E77EC12F015C024F04A
:1020DE0016C025F017C026F0120030C034F0356A55
:1020EE00366A2F34343601E335803450396E33C0BE
:1020FE0034F0356A366A3234343601E33580345082
:10210E00386E3950D8B40BD03850395CD8B00ED0A8
:10211E00395000083824346E180E346407D031C09C
:10212E002EF032C02FF033C030F012003850D8B439
:10213E000BD03950385CD8B00ED038500008392446
:10214E00346E180E346407D02EC02EF02FC02FF030
:10215E0030C030F01200060E376E30BE378E33BEF2
:10216E00378C2F8EFF0E2E16FF0E2F16000E3016EA
:10217E00328EFF0E3116FF0E3216000E3316385009
:10218E00395CD8B01BD0D89031363236333638065B
:10219E0039503818D8B40DD0370637C034F0070E82
:1021AE003416D8B406D0EFD7D89030322F322E3224
:1021BE00392A38503918D8B41FD0F6D73950385C70
:1021CE00D8B01AD0D8902E362F3630363906395030
:1021DE003818D8B40DD0370637C034F0070E341681
:1021EE00D8B406D0EFD7D890333232323132382AC3
:1021FE0038503918D8A4F7D737AE0CD0FF0E2E1A98
:10220E00FF0E2F1AFF0E301A010E2E26000E2F2251
:10221E00000E302237AC0CD0FF0E311AFF0E321AE0
:10222E00FF0E331A010E3126000E3222000E33221B
:10223E00000E376E2E5031262F5032223050332260
:10224E0033AE0ED0FF0E311AFF0E321AFF0E331AB6
:10225E00010E3126000E3222000E3322010E376E91
:10226E0031C001F032C002F033C003F039C004F0C7
:10227E0037C005F06BEC13F001C02EF002C02FF04A
:10228E0003C030F0120003C007F0086A096A023476
:10229E00073601E3088007500F6E0F50D8A409D0FF
:1022AE00000E016E000E026E000E036E000E046E26
:1022BE00120006C007F0086A096A0534073601E302
:1022CE00088007500E6E0E50D8A409D0000E016E75
:1022DE00000E026E000E036E000E046E1200028ED1
:1022EE00FF0E0116FF0E0216000E0316058EFF0ED0
:1022FE000416FF0E0516000E0616000E0A6E000ED0
:10230E000B6E000E0C6E000E0D6E7F0E0F5E0E50DD
:10231E00980F0F5E180E0E6ED8900A360B360C36CE
:10232E000D360450015C0550025806500358D8A0D3
:10233E0007D00450015E0550025A0650035A0A8017
:10234E00D8900136023603360E2EE6D70FAE16D0D3
:10235E000F50800A970FD8B009D0000E016E000EF4
:10236E00026E000E036E000E046E1200D8900D3237
:10237E000C320B320A320F3EF9D715D0170E0F64FE
:10238E000FD0000E016E000E026E000E036E000ED8
:10239E00046E1200D8900A360B360C360D360F0628
:1023AE000F50D8A4F7D70AC001F00BC002F00CC032
:1023BE0003F00DC004F01200033404340C6E0C5004
:1023CE00D8A409D0000E016E000E026E000E036E30
:1023DE00000E046E1200063407340B6E0B50D8A498
:1023EE0009D0000E016E000E026E000E036E000E7E
:1023FE00046E1200038EFF0E0116FF0E0216FF0E64
:10240E000316000E0416068EFF0E0416FF0E05169A
:10241E00FF0E0616000E0716000E076E000E086E53
:10242E00000E096E000E0A6E7F0E0C5E0B50A00F92
:10243E000C5E200E0B6ED8900736083609360A361B
:10244E000450015C055002580650035807500458BA
:10245E00D8A009D00450015E0550025A0650035A06
:10246E000750045A0780D8900136023603360436D8
:10247E000B2EE1D70CAE16D00C50800A9F0FD8B0A1
:10248E0009D0000E016E000E026E000E036E000EDD
:10249E00046E1200D8900A320932083207320C3E0E
:1024AE00F9D715D01F0E0C640FD0000E016E000E62
:1024BE00026E000E036E000E046E1200D8900736E8
:1024CE00083609360A360C060C50D8A4F7D707C0C2
:1024DE0001F008C002F009C003F00AC004F01200B7
:1024EE0017C01BF01C6A1D6A16341B3601E31C80D4
:1024FE001B501E6E1E50D8A407D0000E156E000E77
:10250E00166E000E176E12001AC01BF01C6A1D6AA2
:10251E0019341B3601E31C801B50236E2350D8A4A4
:10252E0007D0000E156E000E166E000E176E1200FE
:10253E0023507B0F1E2617C023F01A50231A800E2D
:10254E002316168E198EFF0E1816FF0E1916000E74
:10255E001A16000E1F6E000E206E000E216E070E54
:10256E00226E15A006D018501F26195020221A5080
:10257E002122D890173216321532D89018361936C5
:10258E001A36222EEED7090E226E15A006D018503E
:10259E001F26195020221A502122D8901732163297
:1025AE001532D890213220321F32222EEED71FC084
:1025BE0001F020C002F021C003F01EC004F023C0C1
:1025CE0005F06BEC13F001C015F002C016F003C05D
:1025DE0017F012002DC02FF0306A316A2C342F36CE
:1025EE0001E330802F50396E3950D8A409D0000E37
:1025FE002B6E000E2C6E000E2D6E000E2E6E120027
:10260E00170E2F6E2BC030F02CC031F02DC032F0D3
:10261E002F28336E04D0D890323231323032332EEE
:10262E00FAD73050346E2C8EFF0E2B16FF0E2C1652
:10263E00000E2D162B50356E2C50366E2D50376EDB
:10264E00386A8E0E395E39AE16D03950800A8F0F29
:10265E00D8B009D0000E2B6E000E2C6E000E2D6E13
:10266E00000E2E6E1200D890383237323632353296
:10267E00393EF9D715D0170E39640FD0000E2B6ED8
:10268E00000E2C6E000E2D6E000E2E6E1200D890C7
:10269E00353636363736383639063950D8A4F7D768
:1026AE003450D8B408D0381E371E361E356C000E86
:1026BE0036223722382235C02BF036C02CF037C0E8
:1026CE002DF038C02EF012000450D8B405D00150B1
:1026DE0002100310D8A40CD0000E016E000E026E74
:1026EE00000E036E1200042AD89003320232013219
:1026FE00000E0114066E000E0214076EFE0E031479
:10270E00086E065007100810D8B40CD0ECD7042A67
:10271E00010E0126000E0222000E0322D890033273
:10272E0002320132000E0114066E000E0214076E04
:10273E00FF0E0314086E065007100810D8B406D00A
:10274E00E6D70406D89001360236033602BE03D011
:10275E00020E0460F6D704A0029ED89004320450F4
:10276E0003120550D8A4038E01C001F002C002F07E
:10277E0003C003F0120003AE16D001C007F002C072
:10278E0008F003C009F0071E081E091E072A000ED6
:10279E0008220922000E0724016E000E0820026E88
:1027AE00800E0920036E06AE16D004C007F005C0D9
:1027BE0008F006C009F0071E081E091E072A000EA3
:1027CE0008220922000E0724046E000E0820056E52
:1027DE00800E0920066E000E011A000E021A800EDF
:1027EE00031A000E041A000E051A800E061A045063
:1027FE00015C0550025806500358D8B002D0D8904C
:10280E001200D8801200000E0C6E0AAE06D0096CB3
:10281E000A1ED8B00A2A010E0C6E08AE06D0076C3E
:10282E00081ED8B0082A010E0C1A000E0E6E000EED
:10283E000D6E09500A10D8B41CD0010E0B6E04D0C8
:10284E00D89009360A360B2A0AAEFAD7D8900D362A
:10285E000E360950075C0A500858D8A005D009500A
:10286E00075E0A50085A0D80D8900A3209320B2E94
:10287E00EDD70C50D8B404D00D6C0E1ED8B00E2A65
:10288E000DC007F00EC008F01200000E096E000E0B
:10289E000A6E000E0B6E000E0C6E05500610071021
:1028AE000810D8B42AD0010E0D6E06D0D890053679
:1028BE000636073608360D2A08AEF8D7D8900936F0
:1028CE000A360B360C360550015C0650025807507E
:1028DE00035808500458D8A009D00550015E065080
:1028EE00025A0750035A0850045A0980D8900832E9
:1028FE000732063205320D2EE1D709C001F00AC0AB
:10290E0002F00BC003F00CC004F01200000E066EB5
:10291E0002AE06D0016C021ED8B0022A010E066E5F
:10292E0004AE04D0036C041ED8B0042A0350041065
:10293E00D8B418D0010E056E04D0D89003360436E4
:10294E00052A04AEFAD70350015C04500258D8A0F1
:10295E0004D00350015E0450025AD8900432033260
:10296E00052EF1D70650D8B404D0016C021ED8B093
:10297E00022A01C001F002C002F012001250131020
:10298E0014101510D8B424D0010E166E06D0D8909F
:10299E001236133614361536162A15AEF8D71250CF
:1029AE000E5C13500F581450105815501158D8A0D3
:1029BE0008D012500E5E13500F5A1450105A155064
:1029CE00115AD8901532143213321232162EE7D70E
:1029DE000EC00EF00FC00FF010C010F011C011F0AD
:1029EE0012008E0E116E06D0D8900C320B320A32B7
:1029FE000932112A000E09140D6E000E0A140E6E05
:102A0E00000E0B140F6EFF0E0C14106E0D500E10E8
:102A1E000F101010D8A4E8D709C001F00AC002F0B8
:102A2E000BC003F011C004F0000E056E6BEC13F03A
:102A3E0001C009F002C00AF003C00BF01200F1EC65
:102A4E0015F0600E406E000E416E4FEC08F0990EC0
:102A5E00406E100E416E4FEC08F0770E406E100E69
:102A6E00416E52C042F0436A4FC044F050C045F030
:102A7E0051C046F0990E476E100E486E4FEC08F09E
:102A8E00870E406E100E416E53C042F0436A4FECFB
:102A9E0008F0FFD7280EF66E2B0EF76E000EF86EAE
:102AAE0000EE60F010EE27F00900F5CFEEFFE550D6
:102ABE00E150FAE1E80EF66E2B0EF76E000EF86E90
:102ACE0000EE4FF010EE05F00900F5CFEEFFE550E9
:102ADE00E150FAE1000126EF15F03D503E103F1097
:102AEE00D8B406D0000E3D1A000E3E1A800E3F1AC4
:102AFE003AC02EF03BC02FF03CC030F03DC031F05C
:102B0E003EC032F03FC033F074EC10F02EC03AF0FD
:102B1E002FC03BF030C03CF012004D6963726F6302
:102B2E006F6E74726F6C61646F7265732079204D75
:102B3E006963726F70726F63657361646F726573D0
:012B4E000086
:102B50000F501102F3CF13F0F4CF14F00F50120204
:102B6000F350142610501102F350142613C00FF026
:102B700014C010F01200015002100310D8B406D097
:102B8000000E011A000E021A800E031A01C001F095
:102B900002C002F003C003F01200036E000E026ECA
:102BA0003A0E036005D02F0E036402D0010E026EB0
:102BB00002C001F001301200800EAB6E260EAC6E2A
:102BC000AF68000EAD6E000EAE6E1200016E9EA8D4
:102BD000FED701C0ADFF1200026E0250E6EC15F008
:0D2BE0001200DCEC15F012001049401F41FE
:020000040020DA
:08000000FFFFFFFFFFFFFFFF00
:020000040030CA
:0E000000FF061E1EF38381FFFFC0FFE0FF40DE
:00000001FF
