:0400000007EF00F016
:0A00080038822AED0AF0A0EF0DF097
:101000000001000A006400E80310272020204D5052
:1010100055732079204D43557320200A0D00204937
:101020006E6720456C656374726F6E696B200A0D84
:10103000002020202020436C6F636B202020202084
:10104000200A0D005242303D4E6F77205241353D0F
:101050004E6578740A0D005242303D202B2B2052F1
:1010600041353D202D2D3E0D005242303D4D656EE7
:1010700075205241353D5365740D0020496E67203F
:10108000456C656374726F6E696B200020202020B0
:1010900020436C6F636B20202020202000524230C0
:1010A0003D202B2B205241353D202D2D3E0052421C
:1010B000303D4D656E75205241353D53657400528B
:1010C00042303D4E6F77205241353D4E6578740079
:1010D00020204D5055732079204D4355732020001A
:1010E00020202020202020200025303264200900EC
:0710F000253032643A0000D4
:1010F800210E276E000E286E21D1250E2F18D8B488
:1011080004D02F50DAEC0DF019D1000E2E6E000E1F
:101118002D6E000E2C6E03D02C841F4A202A1FC06F
:10112800F6FF20C0F7FF000EF86E0800F550300AF1
:10113800D8B4F2D71FC0F6FF20C0F7FF000EF86E34
:101148000800F55069EC0DF0D8A036D0000E2E6ED0
:10115800000E2D6E2DC013F02EC014F0000E166E6A
:101168000A0E156E37EC0DF013C02DF014C02EF0DA
:10117800D00E236EFF0E246E1FC0F6FF20C0F7FFAF
:10118800000EF86E0800F550256E266A23502526B5
:101198002450262225502D2626502E221F4A202A4A
:1011A8001FC0F6FF20C0F7FF000EF86E0800F550CC
:1011B80069EC0DF0D8B0CED71FC0F6FF20C0F7FFFE
:1011C8001F4A202A000EF86E0800F5CF2FF02F5086
:1011D800000AD8B41200640AD8B403D00D0AD8A4FF
:1011E800ADD027C0D9FF28C0DAFFDECF2AF0DDCF87
:1011F8002BF0020E2726000E28222BAE06D0030E57
:101208002C122A6C2B1ED8B02B2A010E2F6E050E1D
:101218002F18D8B415D02F50020D010EF324F66EF6
:10122800100EF420F76EF86A000EF8220900F55047
:101238002A5C0900F5502B58D8A002D02F2AE7D7EE
:101248002D502E10D8B409D02CC023F0030E23162D
:10125800D8B403D02D06D8A02E06800E2FBE7F0E40
:10126800236E2D502F5C2E50800A2358D8B007D0FB
:101278002F502D5E000E2FBEFF0E2E5A04D0000EEA
:101288002E6E000E2D6E2CA414D02CC023F0030E4D
:101298002316D8B403D02D0EDAEC0DF02D502E10F5
:1012A800D8B41ED0300EDAEC0DF02D06D8A02E06DC
:1012B800F5D72D502E10D8B40AD0200EDAEC0DF048
:1012C8002D06D8A02E062D502E10D8A4F6D72CC047
:1012D80023F0030E2316D8B403D02D0EDAEC0DF04C
:1012E8002FC029F027D02950020D010EF324F66EE5
:1012F800100EF420F76EF86A000EF8220900F5CFF8
:1013080015F00A00F5CF16F02AC013F02BC014F020
:101318006FEC0CF013C01AF014C01BF0000E1D6E19
:101328000A0E1C6EE4EC0CF01A50300F2F6E2F5082
:10133800DAEC0DF029062928D8A4D5D71FC0F6FF66
:1013480020C0F7FF1F4A202A000EF86E0800F5CFCC
:101358002FF02F50D8B41200D0D6800EABEC0BF083
:1013680035C013F0146A000E166E0A0E156EBDEC29
:101378000AF01350300F78EC0BF035C013F0146AF4
:10138800000E166E0A0E156E40EC0BF01350300F5F
:1013980078EC0BF03A0E78EC0BF034C013F0146ACA
:1013A800000E166E0A0E156EBDEC0AF01350300FC3
:1013B80078EC0BF034C013F0146A000E166E0A0EA7
:1013C800156E40EC0BF01350300F78EC0BF03A0E22
:1013D80078EC0BF033C013F0146A000E166E0A0E88
:1013E800156EBDEC0AF01350300F78EC0BF033C0DB
:1013F80013F0146A000E166E0A0E156E40EC0BF010
:101408001350300F78EC0BF0E00E1A6E100E1B6EB6
:1014180005EC0DF0F00E1F6E100E206E35C021F099
:10142800226A7CEC08F0F00E1F6E100E206E34C09D
:1014380021F0226A7CEC08F0E90E1F6E100E206E77
:1014480033C021F0226A7CEC08F012000600FACFC3
:1014580001F0FBCF02F0E9CF03F0EACF04F0E1CFCF
:1014680005F0E2CF06F0D9CF07F0DACF08F0F3CFD6
:1014780009F0F4CF0AF0F6CF0BF0F7CF0CF0F8CF65
:101488000DF0F5CF0EF038C00FF039C010F03AC0AB
:1014980011F03BC012F09EB0C7EC0DF012C03BF04B
:1014A80011C03AF010C039F00FC038F00EC0F5FF87
:1014B8000DC0F8FF0CC0F7FF0BC0F6FF0AC0F4FF21
:1014C80009C0F3FF08C0DAFF07C0D9FF06C0E2FF72
:1014D80005C0E1FF04C0EAFF03C0E9FF02C0FBFF4B
:1014E80001C0FAFF38921100000E22D0C00EABECFA
:1014F8000BF09D0E1A6E100E1B6E05EC0DF0570EBC
:101508001F6E100E206E7CEC08F028D0B1EC09F0AC
:1015180081B009D01EEC0DF0352A0C0E356425D0AB
:10152800000E356E22D080BA20D01EEC0DF0010ED0
:10153800316E1BD0B1EC09F081B009D01EEC0DF072
:10154800342A3B0E346411D0000E346E0ED080BAAB
:101558000CD01EEC0DF0000E326E07D03150000A90
:10156800D8B4D4D7010AD8B4E5D73204D8A4120025
:10157800BDD7000E186E16AE06D0156C161ED8B064
:10158800162A010E186E14AE06D0136C141ED8B0AD
:10159800142A010E181A000E1A6E000E196E155034
:1015A8001610D8B41CD0010E176E04D0D89015367A
:1015B8001636172A16AEFAD7D89019361A36155095
:1015C800135C16501458D8A005D01550135E165049
:1015D800145A1980D89016321532172EEDD7185094
:1015E800D8B404D0196C1A1ED8B01A2A19C013F02E
:1015F8001AC014F012003CD03704D8A42BD0332AD8
:101608003B0E336403D0000E336E342A3B0E346431
:1016180003D0000E346E352A0C0E356408D03450D1
:10162800D8A405D03350D8A402D0010E356EB1EC41
:1016380009F0000E376EC00EABEC0BF0AE0E1A6E52
:10164800100E1B6E05EC0DF0690E1F6E100E206E4D
:101658007CEC08F080BA06D01EEC0DF0010E326E5C
:1016680078EC0AF081B004D01EEC0DF0000E366E56
:101678003604D8A41200C0D7000E186E14AE06D0D7
:10168800136C141ED8B0142A010E186E16AE04D0AE
:10169800156C161ED8B0162A15501610D8B418D0C6
:1016A800010E176E04D0D89015361636172A16AEC6
:1016B800FAD71550135C16501458D8A004D01550FA
:1016C800135E1650145AD89016321532172EF1D7C9
:1016D8001850D8B404D0136C141ED8B0142A13C0F0
:1016E80013F014C014F01200196E410E186EEE0EAD
:1016F800E82EFED7182EFCD700D0800E166E120EDC
:1017080093EC0DF00D0E186EFC0EE82EFED7182E79
:10171800FCD719C016F0130E93EC0DF00D0E186ED1
:10172800FC0EE82EFED7182EFCD7C00E166E120E31
:1017380093EC0DF00D0E186EFC0EE82EFED7182E49
:10174800FCD7000E166E120E93EC0DF01200196EF7
:10175800410E186EEE0EE82EFED7182EFCD700D0DC
:10176800000E166E120E93EC0DF00D0E186EFC0E98
:10177800E82EFED7182EFCD719C016F0130E93ECDE
:101788000DF00D0E186EFC0EE82EFED7182EFCD7A5
:10179800400E166E120E93EC0DF00D0E186EFC0E28
:1017A800E82EFED7182EFCD7000E166E120E93ECFC
:1017B8000DF01200000E176E000E166E000E156E5C
:1017C800630E156401D025D017C083FF1650D8A426
:1017D80007D0D88017321728D8A402D0010E166E69
:1017E8001604D8A408D0D8901730176E1750D8A46C
:1017F80002D0000E166E030E146E080E136E770ECE
:10180800E82EFED7132EFCD7142EFAD700F0152A8F
:10181800D7D7000E836E1200BEEC0DF0979C8E9CFD
:10182800410E1A6EEE0EE82EFED71A2EFCD700D007
:101838008E8C000E86EC0DF0010E86EC0DF0000E7D
:10184800166E120E93EC0DF0C30E1A6ECD0EE82E26
:10185800FED71A2EFCD700F0320EABEC0BF03C0E84
:10186800ABEC0BF00C0EABEC0BF0010EABEC0BF091
:10187800060EABEC0BF01200800EABEC0BF08C0EEE
:101888001A6E100E1B6E05EC0DF0C00EABEC0BF0D3
:10189800BF0E1A6E100E1B6E05EC0DF0310E1F6E8A
:1018A800100E206E7CEC08F0440E1F6E100E206E99
:1018B8007CEC08F00CD081B004D01EEC0DF0FFECED
:1018C8000AF080BA04D01EEC0DF0000E366E360415
:1018D800D8A41200F0D7000E186E000E176E15501F
:1018E8001610D8B41CD0010E196E04D0D890153635
:1018F8001636192A16AEFAD7D89017361836155054
:10190800135C16501458D8A005D01550135E165005
:10191800145A1780D89016321532192EEDD717C0E1
:1019280013F018C014F01200136E13C015F0000E57
:10193800146E070E146401D0120013AE02D08B8A05
:1019480001D08B9A8BA803D0D880153603D01550B8
:101958001524156E8B8600F000F000F000F000F002
:1019680000F000F000F000F000F000F000F08B96BE
:10197800D8901336142ADDD710EC0CF0800EABEC9F
:101988000BF0D00E1A6E100E1B6E05EC0DF0C00E8B
:10199800ABEC0BF07B0E1A6E100E1B6E05EC0DF007
:1019A8000B0E1F6E100E206E7CEC08F01E0E1F6EC4
:1019B800100E206E7CEC08F0DEEC0BF0362A1200DC
:1019C8001C501D10D8B418D0010E1E6E04D0D8902B
:1019D8001C361D361E2A1DAEFAD71C501A5C1D5027
:1019E8001B58D8A004D01C501A5E1D501B5AD89002
:1019F8001D321C321E2EF1D71AC01AF01BC01BF064
:101A080012000CD01AC0F6FF1BC0F7FF000EF86ECC
:101A18000800F55078EC0BF01A4A1B2A1AC0F6FF9A
:101A28001BC0F7FF000EF86E0800F5500009D8B487
:101A38001200E8D709D00D0E136EFC0EE82EFED763
:101A4800132EFCD70F0E836E80BA0AD0F4D70D0E72
:101A5800136EFC0EE82EFED7132EFCD7F00E836E05
:101A680081B01200F4D713501502F3CF17F0F4CF5A
:101A780018F013501602F350182614501502F3509C
:101A8800182617C013F018C014F01200B5EC0DF0AA
:101A980005D0C0EC0CF002D040EC0CF03650000A37
:101AA800D8B4F7D7010AD8B4F7D7F8D7000E896E9B
:101AB800928A000E8A6E9380000E956E000E836ED9
:101AC800C180C182C184C1861200156E000E146ED9
:101AD8003A0E156005D02F0E156402D0010E146E53
:101AE80014C013F013301200CD90CD82CD86CF0EE6
:101AF800CD169E909D80800ECF6E000ECE6EDFECD0
:101B08000DF01200166E8994400E98EC0CF01650E9
:101B180098EC0CF0000E98EC0CF089841200176E0B
:101B28008994400E98EC0CF0175098EC0CF0165075
:101B380098EC0CF08984120000EE30F0080EEE6A82
:101B4800E806FDE13890389200014AEF0DF0800E6A
:101B5800AB6E260EAC6EAF68000EAD6E000EAE6EAC
:101B680012005AEC0DF0D5EC0DF078EC0DF0ABEC62
:101B78000DF0120092949488949A949689848B8894
:101B88008B9A8B9612009E90800ECF6E000ECE6EB2
:101B9800010E376E1200136E9EA8FED713C0ADFF5C
:101BA8001200D09E9D80F28CF28E1200146E14509A
:0A1BB800CFEC0DF01200CD801200FA
:020000040020DA
:08000000FFFFFFFFFFFFFFFF00
:020000040030CA
:0E000000FF061E1EF38381FFFFC0FFE0FF40DE
:00000001FF
