:04000000EDEF3FF0F1
:107F8C003F065B4F666D7D077F6FD388D38AD38C9A
:107F9C009B8C000E8A6E000E8C6E7F987F947F9067
:107FAC007F929368000E956E1200CBEC3FF00A0E98
:107FBC0081600AD08150010D010EF324D96E000EA0
:107FCC00F420DA6EDF5001D0000E836EF0D78C0EE9
:107FDC00F66E7F0EF76E000EF86E00EE01F010EEEE
:107FEC000AF00900F5CFEEFFE550E150FAE100018F
:047FFC00DBEF3FF088
:020000040020DA
:08000000FFFFFFFFFFFFFFFF00
:020000040030CA
:0E000000FF081E1EFF8981FF0FC00FE00F409A
:00000001FF
