:04000000A8EF3FF036
:107F31000008222A555D77D388D38AD38C000E8A14
:107F41006E000E8C6E7F989350000E956E1200316C
:107F51000EF66E7F0EF76E000EF86E00EE01F01059
:107F6100EE07F00900F5CFEEFFE550E150FAE10030
:107F710001D2EF3FF0000E0C6E000E0B6E0BD0061F
:107F81000E0A6E300EE82EFED70A2EFCD700F00046
:107F9100F00B4A0C2A08500B5C09500C58D8B0124F
:107FA10000EED7010E0E6E9CEC3FF081B00AD01F9F
:107FB100D0060E0D6E300EE82EFED70D2EFCD7002A
:107FC100F000F081B0F5D70E50010D010EF324D968
:107FD1006E000EF420DA6EDF50836E0B0E096EB860
:107FE1000E086EBBEC3FF0000E836E000E0E6E0E9F
:0F7FF1002A070E0E18D8A4D9D7010E0E6ED6D7B8
:020000040020DA
:08000000FFFFFFFFFFFFFFFF00
:020000040030CA
:0E000000FF081E1EFF8981FF0FC00FE00F409A
:00000001FF
