:0400000061EF11F0AB
:1006000000010000000A00000064000000E8030090
:100610000010270000A086010040420F008096983D
:100620000000E1F50500CA9A3B00803F0020410030
:10063000C842007A44401C4650C347247449971866
:100640004BBCBE4C6B6E4E03155079AD60F34971D7
:1006500000803FCDCC3DD7233C12833AB7D138C67A
:100660002737388635C0D633CC2B32708930E7DB5C
:100670002EE53C1E42A20D613D25642C623D252ED7
:1006800033660000440E0001636F000E646FF8D300
:10069000250E7619D8B409D040C0D9FF41C0DAFF81
:1006A00076C0DFFF404A412AEBD3000E666F000E92
:1006B000656F42C0F6FF43C0F7FF0800F5502E0AF1
:1006C000D8A42FD0668D424A432A000E726F000EC6
:1006D000716F1CD071C00FF072C010F0000E126E5E
:1006E0000A0E116EACEC11F042C0F6FF43C0F7FFEA
:1006F0000800F5500F26000E1022D00E0F24000126
:10070000716FFF0E1020726F424A432A42C0F6FFFB
:1007100043C0F7FF0800F550D1EC11F0D8A00AD083
:10072000D9D7000E0001726F000E716F668902D07A
:10073000668517D042C0F6FF43C0F7FF424A432AFE
:100740000800F5CF76F000017651000AD8B4A5D3A1
:10075000640AD8B406D0020AD8B4EAD70F0AD8A4DB
:100760008FD3070E6615D8B4C9D266A904D0000E7F
:10077000726F060E716F63C0D9FF64C0DAFFDECFFF
:1007800073F0DECF74F0DDCF75F0030E6327000E3B
:10079000642375AF11D073C001F074C002F075C04E
:1007A00003F0BFEC11F001C073F002C074F003C09D
:1007B00075F0030E00016513000E686F000E676F81
:1007C000735174117511D8B486D0820E496EFF0E24
:1007D0004A6E73C04BF074C04CF075C04DF076C0DB
:1007E0004EF0100E05D0D8904E324D324C324B3276
:1007F000E82EF9D74B504924676F000E4A20686FE6
:100800006707D8A0680767C00FF068C010F0000E37
:10081000126E030E116EACEC11F00FC067F010C039
:1008200068F067C007F068C008F0000E0A6E0A0E94
:10083000096EE0EC0FF007C067F008C068F0000137
:1008400068AF03D06707D8A068076751000854EC69
:1008500007F024C069F025C06AF026C06BF069C0BB
:1008600015F06AC016F06BC017F073C018F074C0B2
:1008700019F075C01AF04DEC0EF015C069F016C0F5
:100880006AF017C06BF069C001F06AC002F06BC07B
:1008900003F0000E046E800E056E3F0E066E98EC9F
:1008A0000FF0D8B005D000016707D8A0680713D0B3
:1008B00069C001F06AC002F06BC003F0000E046E64
:1008C000200E056E410E066E98EC0FF0D8A003D0F6
:1008D0000001674B682B000172BF06D072511BE10B
:1008E0000D0E715DD8B017D073C02EF074C02FF00C
:1008F00075C030F0715158EC09F024C031F025C0BA
:1009000032F026C033F081EC0AF02EC073F02FC015
:1009100074F030C075F0000168BF06D0685120E166
:100920000A0E675DD8B01CD0735174117511D8B41C
:1009300056D073C02BF074C02CF075C02DF0C7ECEE
:100940000EF02B502C102D102E10D8A448D00001E2
:1009500068BF45D0685104E1020E675DD8A03FD062
:1009600069C001F06AC002F06BC003F0700E046E43
:10097000890E056E400E066E98EC0FF0D8B003D0CD
:100980000001F70E02D00001F80E6727FF0E682362
:10099000675154EC07F024C069F025C06AF026C006
:1009A0006BF073C001F074C002F075C003F069C051
:1009B00004F06AC005F06BC006F0F3EC0BF001C068
:1009C0006DF002C06EF003C06FF004C070F0000E56
:1009D0000001736F000E746F000E756F33D073C01B
:1009E0002BF074C02CF075C02DF0C7EC0EF02BC0AE
:1009F0006DF02CC06EF02DC06FF02EC070F073C083
:100A00003AF074C03BF075C03CF06DC009F06EC0A8
:100A10000AF06FC00BF070C00CF033EC11F009C09D
:100A20003DF00AC03EF00BC03FF08CEC11F03AC034
:100A300073F03BC074F03CC075F0000E0001686FAD
:100A4000000E676F010E766F0A0E7619D8B418D0B3
:100A50007651040D010EF324F66E060EF420F76EA7
:100A60000900F5506D5D0900F5506E590900F5500B
:100A70006F590900F5507059D8A002D0762BE4D7F1
:100A8000030E6515496E000E66154A6E49504A10F0
:100A9000D8B450D040C0D9FF41C0DAFF2D0E47D0A6
:100AA0006DC001F06EC002F06FC003F070C004F0C2
:100AB0007651040D010EF324F66E060EF420F76E47
:100AC0000900F5CF05F00900F5CF06F00900F5CFD4
:100AD00007F00A00F5CF08F022EC10F001C069F031
:100AE00002C06AF003C06BF004C06CF069C00EF085
:100AF0006AC00FF06BC010F06CC011F00A0E126EDD
:100B0000000E136E000E146E000E156ECFEC10F07A
:100B10000EC069F00FC06AF010C06BF011C06CF02D
:100B200000016951300F40C0D9FF41C0DAFFDF6ECC
:100B3000404A412A76077629D8B40CD0B1D740C0B4
:100B4000D9FF41C0DAFF300EDF6E404A412A670705
:100B5000D8A0680768BF05D06851F1E16705D8B033
:100B6000EED772BF09D0725104E1090E715DD8A0B1
:100B700003D0080E766F02D071C076F07651715FA7
:100B8000000E76BFFF0E725B7651D8B408D040C01D
:100B9000D9FF41C0DAFF2E0EDF6E404A412A76515E
:100BA00054EC07F024C060F025C061F026C062F06C
:100BB00073C018F074C019F075C01AF060C015F059
:100BC00061C016F062C017F04DEC0EF015C02BF0AE
:100BD00016C02CF017C02DF0C7EC0EF02BC06DF036
:100BE0002CC06EF02DC06FF02EC070F071D06DC0B3
:100BF00001F06EC002F06FC003F070C004F000019D
:100C00007651040D010EF324F66E060EF420F76EF5
:100C10000900F5CF05F00900F5CF06F00900F5CF82
:100C200007F00A00F5CF08F022EC10F001C069F0DF
:100C300002C06AF003C06BF004C06CF069C00EF033
:100C40006AC00FF06BC010F06CC011F00A0E126E8B
:100C5000000E136E000E146E000E156ECFEC10F029
:100C60000EC069F00FC06AF010C06BF011C06CF0DC
:100C700000016951300F40C0D9FF41C0DAFFDF6E7B
:100C8000404A412A6DC00EF06EC00FF06FC010F0E8
:100C900070C011F07651040D010EF324F66E060EAD
:100CA000F420F76E0900F5CF12F00900F5CF13F02C
:100CB0000900F5CF14F00A00F5CF15F0CFEC10F0D5
:100CC0000EC06DF00FC06EF010C06FF011C070F06C
:100CD000000176077629D8B40CD089D740C0D9FF57
:100CE00041C0DAFF300EDF6E404A412A7107D8A0BA
:100CF000720771517211D8B4C3D0F0D763C0D9FF55
:100D000064C0DAFFDECF6DF0DDCF6EF0000E6EBF97
:100D1000FF0E6F6F706F020E6327000E642370AFBB
:100D20000AD0030E6513701F6F1F6E1F6D6D000ECE
:100D30006E236F23702371517211D8A408D06D51A6
:100D40006E116F117011D8A402D0714B722B010E6D
:100D5000766F0A0E7619D8B418D07651040D010EAC
:100D6000F324F66E060EF420F76E0900F5506D5D63
:100D70000900F5506E590900F5506F590900F550FA
:100D80007059D8A002D0762BE4D7800E76BF7F0EA4
:100D9000496E7151765D7251800A4958D8B003D0BE
:100DA00071C076F010D07251800A496E7651715D33
:100DB000800E76BF7F0E4958D8B005D07651716F3E
:100DC000726B71BF7207030E6515496E000E6615D2
:100DD0004A6E49504A10D8B44BD040C0D9FF41C0E8
:100DE000DAFF2D0EDF6E42D071C049F072C04AF0BA
:100DF000D89049364A36D89049364A36010E4924A9
:100E0000F66E060E4A20F76E0900F5CF05F00900D0
:100E1000F5CF06F00900F5CF07F00A00F5CF08F08E
:100E20006DC001F06EC002F06FC003F070C004F03E
:100E300022EC10F001C00EF002C00FF003C010F061
:100E400004C011F00A0E126E000E136E000E146E26
:100E5000000E156ECFEC10F00E50300F0001766FC3
:100E600040C0D9FF41C0DAFF76C0DFFF404A412AC7
:100E70007107D8A072077129B7E17229D8A4B4D735
:100E800042C0F6FF43C0F7FF424A432A0800F5CFAD
:100E900076F07651D8A448EF03F040C0D9FF41C0A6
:100EA000DAFF000EDF6E12002A6E2AAE01D12A6C24
:100EB0002A50800A120FD8A091D0000E126E030E95
:100EC000116E000E0A6E0A0E096E000E046E640E9C
:100ED000036E2A50016E026A01BE020663EC10F036
:100EE00001C007F002C008F0E0EC0FF0090E072483
:100EF0000F6E000E0820106EACEC11F0500E0F2497
:100F0000F66E060E1020F76E0900F5CF18F00900F6
:100F1000F5CF19F00A00F5CF1AF0000E0A6E640E34
:100F2000096E2A50076E086A07BE0806E0EC0FF04B
:100F3000120E07240F6E000E0820106E000E126EA7
:100F4000030E116EACEC11F0500E0F24F66E060E6F
:100F50001020F76E0900F5CF15F00900F5CF16F057
:100F60000A00F5CF17F04DEC0EF015C027F016C0B3
:100F700028F017C029F027C015F028C016F029C0A6
:100F800017F0000E126E030E116E000E046E0A0EA4
:100F9000036E2A50016E026A01BE020663EC10F075
:100FA00001C00FF002C010F0ACEC11F0500E0F2495
:100FB000F66E060E1020F76E0900F5CF18F0090046
:100FC000F5CF19F00A00F5CF1AF04DEC0EF015C070
:100FD00024F016C025F017C026F012002A50800A0F
:100FE000750FD8A053D0000E0A6E0A0E096E2A5053
:100FF000076E086A07BE0806E0EC0FF0090E07242A
:101000000F6E000E0820106E000E126E030E116E91
:10101000ACEC11F0500E0F24F66E060E1020F76E99
:101020000900F5CF15F00900F5CF16F00A00F5CF4D
:1010300017F0000E126E030E116E000E046E0A0EF3
:10104000036E2A50016E026A01BE020663EC10F0C4
:1010500001C00FF002C010F0ACEC11F0500E0F24E4
:10106000F66E060E1020F76E0900F5CF18F0090095
:10107000F5CF19F00A00F5CF1AF04DEC0EF015C0BF
:1010800024F016C025F017C026F012002A50030DD8
:10109000500EF324F66E060EF420F76E0900F5CF1D
:1010A00024F00900F5CF25F00A00F5CF26F0120054
:1010B0002A50800A120FD8A091D0000E126E030E93
:1010C000116E000E0A6E0A0E096E000E046E640E9A
:1010D000036E2A50016E026A01BE020663EC10F034
:1010E00001C007F002C008F0E0EC0FF0090E072481
:1010F0000F6E000E0820106EACEC11F0290E0F24BC
:10110000F66E060E1020F76E0900F5CF18F00900F4
:10111000F5CF19F00A00F5CF1AF0000E0A6E640E32
:10112000096E2A50076E086A07BE0806E0EC0FF049
:10113000120E07240F6E000E0820106E000E126EA5
:10114000030E116EACEC11F0290E0F24F66E060E94
:101150001020F76E0900F5CF15F00900F5CF16F055
:101160000A00F5CF17F04DEC0EF015C027F016C0B1
:1011700028F017C029F027C015F028C016F029C0A4
:1011800017F0000E126E030E116E000E046E0A0EA2
:10119000036E2A50016E026A01BE020663EC10F073
:1011A00001C00FF002C010F0ACEC11F0290E0F24BA
:1011B000F66E060E1020F76E0900F5CF18F0090044
:1011C000F5CF19F00A00F5CF1AF04DEC0EF015C06E
:1011D00024F016C025F017C026F012002A50800A0D
:1011E000750FD8A053D0000E0A6E0A0E096E2A5051
:1011F000076E086A07BE0806E0EC0FF0090E072428
:101200000F6E000E0820106E000E126E030E116E8F
:10121000ACEC11F0290E0F24F66E060E1020F76EBE
:101220000900F5CF15F00900F5CF16F00A00F5CF4B
:1012300017F0000E126E030E116E000E046E0A0EF1
:10124000036E2A50016E026A01BE020663EC10F0C2
:1012500001C00FF002C010F0ACEC11F0290E0F2409
:10126000F66E060E1020F76E0900F5CF18F0090093
:10127000F5CF19F00A00F5CF1AF04DEC0EF015C0BD
:1012800024F016C025F017C026F012002A50030DD6
:10129000290EF324F66E060EF420F76E0900F5CF42
:1012A00024F00900F5CF25F00A00F5CF26F0120052
:1012B0002D6E6D0E2D649FD0000E126E030E116EFA
:1012C000000E0A6E0A0E096E000E046E640E036EA6
:1012D0002DC001F0026A63EC10F001C007F002C0FB
:1012E00008F0E0EC0FF0090E07240F6E000E082046
:1012F000106EACEC11F0500E0F24F66E060E10209E
:10130000F76E0900F5CF18F00900F5CF19F00A00C3
:10131000F5CF1AF0000E0A6E640E096E2DC007F0AC
:10132000086AE0EC0FF0120E07240F6E000E082082
:10133000106E000E126E030E116EACEC11F0500E1A
:101340000F24F66E060E1020F76E0900F5CF15F08B
:101350000900F5CF16F00A00F5CF17F04DEC0EF0AE
:1013600015C02AF016C02BF017C02CF0000E126E1C
:10137000030E116E000E046E0A0E036E2DC001F0F6
:10138000026A63EC10F001C00FF002C010F0ACEC88
:1013900011F0500E0F24F66E060E1020F76E0900A5
:1013A000F5CF18F00900F5CF19F00A00F5CF1AF0C3
:1013B0002AC015F02BC016F02CC017F04DEC0EF023
:1013C00015C027F016C028F017C029F027C015F067
:1013D00028C016F029C017F0000E186E000E196E06
:1013E0003F0E1A6E4DEC0EF015C024F016C025F01D
:1013F00017C026F012000A0E2D6463D0000E126E84
:10140000030E116E000E046E0A0E036E2DC001F065
:10141000026A63EC10F001C00FF002C010F0ACECF7
:1014200011F0500E0F24F66E060E1020F76E090014
:10143000F5CF18F00900F5CF19F00A00F5CF1AF032
:10144000000E0A6E0A0E096E2DC007F0086AE0EC65
:101450000FF0090E07240F6E000E0820106E000E0C
:10146000126E030E116EACEC11F0500E0F24F66EDE
:10147000060E1020F76E0900F5CF15F00900F5CF24
:1014800016F00A00F5CF17F04DEC0EF015C02AF05B
:1014900016C02BF017C02CF02AC015F02BC016F088
:1014A0002CC017F0000E186E000E196E3F0E1A6E4B
:1014B0004DEC0EF015C024F016C025F017C026F034
:1014C00012002D50030D500EF324F66E060EF4207C
:1014D000F76E0900F5CF15F00900F5CF16F00A00F8
:1014E000F5CF17F0000E186E000E196E3F0E1A6E33
:1014F0004DEC0EF015C024F016C025F017C026F0F4
:10150000120030C034F0356A366A2F34343601E3C5
:1015100035803450396E33C034F0356A366A32342F
:10152000343601E335803450386E3950D8B40BD09E
:101530003850395CD8B00ED0395000083824346E99
:10154000180E346407D031C02EF032C02FF033C0F3
:1015500030F012003850D8B40BD03950385CD8B0C5
:101560000ED0385000083924346E180E346407D079
:101570002EC02EF02FC02FF030C030F01200060E1B
:10158000376E30BE378E33BE378C2F8EFF0E2E1641
:10159000FF0E2F16000E3016328EFF0E3116FF0E84
:1015A0003216000E33163850395CD8B01BD0D890A4
:1015B000313632363336380639503818D8B40DD073
:1015C000370637C034F0070E3416D8B406D0EFD73C
:1015D000D89030322F322E32392A38503918D8B4B8
:1015E0001FD0F6D73950385CD8B01AD0D8902E36E4
:1015F0002F363036390639503818D8B40DD0370662
:1016000037C034F0070E3416D8B406D0EFD7D890D0
:10161000333232323132382A38503918D8A4F7D719
:1016200037AE0CD0FF0E2E1AFF0E2F1AFF0E301AF7
:10163000010E2E26000E2F22000E302237AC0CD0C9
:10164000FF0E311AFF0E321AFF0E331A010E312629
:10165000000E3222000E3322000E376E2E5031263D
:101660002F5032223050332233AE0ED0FF0E311ABB
:10167000FF0E321AFF0E331A010E3126000E3222EF
:10168000000E3322010E376E31C001F032C002F07D
:1016900033C003F039C004F037C005F041EC0FF05F
:1016A00001C02EF002C02FF003C030F01200036E14
:1016B00083908382016A03AE01D0012A010E0116D4
:1016C00001320132835001187F0B0118836E03C071
:1016D00001F0060E026ED8900132022EFCD7010EE8
:1016E0000116013A0146014683500118BF0B01184B
:1016F000836E03C001F0050E026ED8900132022EF7
:10170000FCD7010E0116013A014683500118DF0B88
:101710000118836E03C001F0013A0F0E0116010E8D
:101720000116013A83500118EF0B0118836E030E66
:10173000E82EFED700F08380060EE82EFED700F0DC
:1017400000F0839003C001F0D8900132D8900132AC
:10175000D8900132010E0116013201328350011876
:101760007F0B0118836E03C001F0D8900132D8902E
:101770000132010E0116013A01460146835001185B
:10178000BF0B0118836E03C001F0D8900132010E27
:101790000116013A014683500118DF0B0118836ED0
:1017A00003C001F0010E0116013A83500118EF0B3E
:1017B0000118836E030EE82EFED700F08380060E1C
:1017C000E82EFED700F000F08390060EE82EFED73C
:1017D00000F000F01D0E016E910EE82EFED7012ED6
:1017E000FCD700F0120003C007F0086A096A02344F
:1017F000073601E3088007500F6E0F50D8A409D0B8
:10180000000E016E000E026E000E036E000E046EDE
:10181000120006C007F0086A096A0534073601E3BA
:10182000088007500E6E0E50D8A409D0000E016E2D
:10183000000E026E000E036E000E046E1200028E89
:10184000FF0E0116FF0E0216000E0316058EFF0E88
:101850000416FF0E0516000E0616000E0A6E000E88
:101860000B6E000E0C6E000E0D6E7F0E0F5E0E5096
:10187000980F0F5E180E0E6ED8900A360B360C3687
:101880000D360450015C0550025806500358D8A08C
:1018900007D00450015E0550025A0650035A0A80D0
:1018A000D8900136023603360E2EE6D70FAE16D08C
:1018B0000F50800A970FD8B009D0000E016E000EAD
:1018C000026E000E036E000E046E1200D8900D32F0
:1018D0000C320B320A320F3EF9D715D0170E0F64B7
:1018E0000FD0000E016E000E026E000E036E000E91
:1018F000046E1200D8900A360B360C360D360F06E1
:101900000F50D8A4F7D70AC001F00BC002F00CC0EA
:1019100003F00DC004F01200036E83908392016AFD
:1019200003AE01D0012A010E0116013201328350AB
:1019300001187F0B0118836E03C001F0060E026EC2
:10194000D8900132022EFCD7010E0116013A014651
:10195000014683500118BF0B0118836E03C001F0CC
:10196000050E026ED8900132022EFCD7010E011630
:10197000013A014683500118DF0B0118836E03C042
:1019800001F0013A0F0E0116010E0116013A8350C3
:101990000118EF0B0118836E030EE82EFED700F03E
:1019A0008380060EE82EFED700F000F0839003C07F
:1019B00001F0D8900132D8900132D8900132010E56
:1019C000011601320132835001187F0B0118836E1A
:1019D00003C001F0D8900132D8900132010E0116F7
:1019E000013A0146014683500118BF0B0118836E6E
:1019F00003C001F0D8900132010E0116013A0146F0
:101A000083500118DF0B0118836E03C001F0010E33
:101A10000116013A83500118EF0B0118836E030E73
:101A2000E82EFED700F08380060EE82EFED700F0E9
:101A300000F083901D0E016E910EE82EFED7012E50
:101A4000FCD700F01200959E959C959A95989590DC
:101A50009592839E839C839A8398839083921D0E94
:101A6000046E910EE82EFED7042EFCD700F01D0E5A
:101A7000046E910EE82EFED7042EFCD700F01D0E4A
:101A8000046E910EE82EFED7042EFCD700F01D0E3A
:101A9000046E910EE82EFED7042EFCD700F01D0E2A
:101AA000046E910EE82EFED7042EFCD700F01D0E1A
:101AB000046E910EE82EFED7042EFCD700F0010E26
:101AC000056E20D0839E839C838A83888390839233
:101AD000839E839C838A838883808392060EE82E6C
:101AE000FED700F000F0839E839C838A83888390D6
:101AF00083921D0E046E910EE82EFED7042EFCD7A5
:101B000000F0052A030E0564DDD7839E839C838A3B
:101B1000839883908392839E839C838A8398838017
:101B20008392060EE82EFED700F000F0839E839C81
:101B3000838A8398839083921D0E046E910EE82E03
:101B4000FED7042EFCD700F0280E056E05508CEC55
:101B50000CF0100E056E05508CEC0CF0010E056EAD
:101B600005508CEC0CF00F0E056E05508CEC0CF053
:101B70001200033404340C6E0C50D8A409D0000EAB
:101B8000016E000E026E000E036E000E046E120057
:101B9000063407340B6E0B50D8A409D0000E016E2A
:101BA000000E026E000E036E000E046E1200038E15
:101BB000FF0E0116FF0E0216FF0E0316000E04168E
:101BC000068EFF0E0416FF0E0516FF0E0616000EFB
:101BD0000716000E076E000E086E000E096E000E4E
:101BE0000A6E7F0E0C5E0B50A00F0C5E200E0B6E6B
:101BF000D8900736083609360A360450015C05507D
:101C000002580650035807500458D8A009D0045071
:101C1000015E0550025A0650035A0750045A0780C5
:101C2000D89001360236033604360B2EE1D70CAEBF
:101C300016D00C50800A9F0FD8B009D0000E016E4C
:101C4000000E026E000E036E000E046E1200D8909D
:101C50000A320932083207320C3EF9D715D01F0E6E
:101C60000C640FD0000E016E000E026E000E036EAB
:101C7000000E046E1200D8900736083609360A3670
:101C80000C060C50D8A4F7D707C001F008C002F02A
:101C900009C003F00AC004F0120017C01BF01C6A50
:101CA0001D6A16341B3601E31C801B501E6E1E502D
:101CB000D8A407D0000E156E000E166E000E176E1B
:101CC00012001AC01BF01C6A1D6A19341B3601E38E
:101CD0001C801B50236E2350D8A407D0000E156E15
:101CE000000E166E000E176E120023507B0F1E267C
:101CF00017C023F01A50231A800E2316168E198E41
:101D0000FF0E1816FF0E1916000E1A16000E1F6E83
:101D1000000E206E000E216E070E226E15A006D05A
:101D200018501F26195020221A502122D8901732FD
:101D300016321532D890183619361A36222EEED7AA
:101D4000090E226E15A006D018501F261950202209
:101D50001A502122D890173216321532D8902132DB
:101D600020321F32222EEED71FC001F020C002F019
:101D700021C003F01EC004F023C005F041EC0FF0B9
:101D800001C015F002C016F003C017F012002DC0FC
:101D90002FF0306A316A2C342F3601E330802F5017
:101DA000396E3950D8A409D0000E2B6E000E2C6E5F
:101DB000000E2D6E000E2E6E1200170E2F6E2BC011
:101DC00030F02CC031F02DC032F02F28336E04D00B
:101DD000D890323231323032332EFAD73050346E1E
:101DE0002C8EFF0E2B16FF0E2C16000E2D162B50D0
:101DF000356E2C50366E2D50376E386A8E0E395E29
:101E000039AE16D03950800A8F0FD8B009D0000EE5
:101E10002B6E000E2C6E000E2D6E000E2E6E12001C
:101E2000D8903832373236323532393EF9D715D07C
:101E3000170E39640FD0000E2B6E000E2C6E000EA4
:101E40002D6E000E2E6E1200D8903536363637368F
:101E5000383639063950D8A4F7D73450D8B408D01A
:101E6000381E371E361E356C000E362237223822B9
:101E700035C02BF036C02CF037C02DF038C02EF016
:101E800012000450D8B405D0015002100310D8A499
:101E90000CD0000E016E000E026E000E036E1200DA
:101EA000042AD890033202320132000E0114066E69
:101EB000000E0214076EFE0E0314086E0650071083
:101EC0000810D8B40CD0ECD7042A010E0126000E5D
:101ED0000222000E0322D890033202320132000E99
:101EE0000114066E000E0214076EFF0E0314086E36
:101EF000065007100810D8B406D0E6D70406D890CC
:101F000001360236033602BE03D0020E0460F6D755
:101F100004A0029ED8900432045003120550D8A4A5
:101F2000038E01C001F002C002F003C003F01200F2
:101F300003AE16D001C007F002C008F003C009F0DC
:101F4000071E081E091E072A000E08220922000E7D
:101F50000724016E000E0820026E800E0920036E19
:101F600006AE16D004C007F005C008F006C009F0A0
:101F7000071E081E091E072A000E08220922000E4D
:101F80000724046E000E0820056E800E0920066EE0
:101F9000000E011A000E021A800E031A000E041A17
:101FA000000E051A800E061A0450015C05500258F6
:101FB00006500358D8B002D0D8901200D880120032
:101FC000000E0C6E0AAE06D0096C0A1ED8B00A2AA2
:101FD000010E0C6E08AE06D0076C081ED8B0082A99
:101FE000010E0C1A000E0E6E000E0D6E09500A1036
:101FF000D8B41CD0010E0B6E04D0D89009360A3626
:102000000B2A0AAEFAD7D8900D360E360950075C67
:102010000A500858D8A005D00950075E0A50085A3F
:102020000D80D8900A3209320B2EEDD70C50D8B45F
:1020300004D00D6C0E1ED8B00E2A0DC007F00EC0D5
:1020400008F01200000E096E000E0A6E000E0B6EF4
:10205000000E0C6E0550061007100810D8B42AD0D8
:10206000010E0D6E06D0D8900536063607360836B6
:102070000D2A08AEF8D7D89009360A360B360C363A
:102080000550015C06500258075003580850045888
:10209000D8A009D00550015E0650025A0750035AD5
:1020A0000850045A0980D8900832073206320532A7
:1020B0000D2EE1D709C001F00AC002F00BC003F0F9
:1020C0000CC004F01200000E066E02AE06D0016CC9
:1020D000021ED8B0022A010E066E04AE04D0036CB4
:1020E000041ED8B0042A03500410D8B418D0010E2E
:1020F000056E04D0D89003360436052A04AEFAD70C
:102100000350015C04500258D8A004D00350015E73
:102110000450025AD89004320332052EF1D70650EB
:10212000D8B404D0016C021ED8B0022A01C001F05C
:1021300002C002F01200E7EC11F023EC0DF00C0EDF
:102140008CEC0CF0000E046E870E056E000E066E11
:10215000010E02EC11F0140E8CEC0CF0545057EC04
:102160000BF0770E406E000E416E770E426E060E3B
:10217000436E52C044F053C045F04FC046F050C0CB
:1021800047F051C048F042EC03F0000E046E770EA9
:10219000056E000E066E020E02EC11F0FFD7125013
:1021A000131014101510D8B424D0010E166E06D0DA
:1021B000D8901236133614361536162A15AEF8D7BF
:1021C00012500E5C13500F581450105815501158DF
:1021D000D8A008D012500E5E13500F5A1450105A47
:1021E0001550115AD8901532143213321232162E5D
:1021F000E7D70EC00EF00FC00FF010C010F011C0E6
:1022000011F01200076E0DD00450800F08D004505A
:10221000C00F05D00450940F02D00450D40F086EA4
:102220000DD00750010AD8B4EFD7030AD8B4EFD7BE
:10223000010AD8B4EFD7070AD8B4EFD708508CEC0E
:102240000CF009D005C0D9FF06C0DAFFDF5057EC0B
:102250000BF0054A062A05C0D9FF06C0DAFFDF5099
:10226000D8B41200EFD78E0E116E06D0D8900C3273
:102270000B320A320932112A000E09140D6E000EBB
:102280000A140E6E000E0B140F6EFF0E0C14106E5F
:102290000D500E100F101010D8A4E8D709C001F08F
:1022A0000AC002F00BC003F011C004F0000E056E6E
:1022B00041EC0FF001C009F002C00AF003C00BF0BE
:1022C0001200C00EF66E230EF76E000EF86E00EED2
:1022D00087F010EE0DF00900F5CFEEFFE550E1506C
:1022E000FAE1D60EF66E230EF76E000EF86E00EED3
:1022F0004FF010EE06F00900F5CFEEFFE550E1508B
:10230000FAE100EE77F0100EEE6AE806FDE1000E4D
:10231000F86E00019BEF10F03D503E103F10D8B416
:1023200006D0000E3D1A000E3E1A800E3F1A3AC02B
:102330002EF03BC02FF03CC030F03DC031F03EC02D
:1023400032F03FC033F081EC0AF02EC03AF02FC0DB
:102350003BF030C03CF012000F501102F3CF13F0ED
:10236000F4CF14F00F501202F35014261050110243
:10237000F350142613C00FF014C010F012000150D7
:1023800002100310D8B406D0000E011A000E021A73
:10239000800E031A01C001F002C002F003C003F076
:1023A0001200036E000E026E3A0E036005D02F0E6F
:1023B000036402D0010E026E02C001F0013012006F
:0D23C0004469676974616C657320494900C8
:0E23CE00D388D38AD38C12001049401F0041DF
:020000040020DA
:08000000FFFFFFFFFFFFFFFF00
:020000040030CA
:0E000000FF081E1EFF8981FF0FC00FE00F409A
:00000001FF
