:04000000B0EF3DF030
:107B2A00D388D38AD38C7F987F94000E8A6E9382EF
:107B3A0093801200202054616C6C6572204E6F2E67
:107B4A00203220200043746F73204469676974618E
:107B5A006C65732032003E0EF66E7B0EF76E000ED9
:107B6A00F86E00EE01F010EE22F00900F5CFEEFFFC
:107B7A00E550E150FAE1000EF86E0001DEEF3DF04B
:107B8A0009D0060E236E300EE82EFED7232EFCD720
:107B9A0000F000F081A20AD0F4D7060E236E300E50
:107BAA00E82EFED7232EFCD700F000F081A01200A9
:107BBA00F4D795EC3DF037EC3EF00C0ECDEC3EF0F0
:107BCA00000E266E120E276E000E286E010E06ECAF
:107BDA003EF0000E266E010E276E000E286E020E73
:107BEA0006EC3EF081A205D0C5EC3DF0180ECDECB6
:107BFA003EF081A0F7D7C5EC3DF01C0ECDEC3EF06F
:107C0A00F1D7296E0DD02650800F08D02650C00F0C
:107C1A0005D02650940F02D02650D40F2A6E0DD0CC
:107C2A002950010AD8B4EFD7030AD8B4EFD7010A0A
:107C3A00D8B4EFD7070AD8B4EFD72A50CDEC3EF024
:107C4A0009D027C0D9FF28C0DAFFDF5064EC3FF023
:107C5A00274A282A27C0D9FF28C0DAFFDF50D8B41C
:107C6A001200EFD7959E959C959A95989590959226
:107C7A00839E839C839A8398839083921D0E266E9B
:107C8A00910EE82EFED7262EFCD700F01D0E266E8A
:107C9A00910EE82EFED7262EFCD700F01D0E266E7A
:107CAA00910EE82EFED7262EFCD700F01D0E266E6A
:107CBA00910EE82EFED7262EFCD700F01D0E266E5A
:107CCA00910EE82EFED7262EFCD700F01D0E266E4A
:107CDA00910EE82EFED7262EFCD700F0010E276E55
:107CEA0020D0839E839C838A838883908392839EF9
:107CFA00839C838A838883808392060EE82EFED72C
:107D0A0000F000F0839E839C838A83888390839209
:107D1A001D0E266E910EE82EFED7262EFCD700F0F9
:107D2A00272A030E2764DDD7839E839C838A839840
:107D3A0083908392839E839C838A83988380839291
:107D4A00060EE82EFED700F000F0839E839C838AFD
:107D5A008398839083921D0E266E910EE82EFED78D
:107D6A00262EFCD700F0280E276E2750CDEC3EF0C9
:107D7A00100E276E2750CDEC3EF0010E276E2750CD
:107D8A00CDEC3EF00F0E276E2750CDEC3EF01200E0
:107D9A00256E83908392236A25AE01D0232A010E91
:107DAA00231623322332835023187F0B2318836E22
:107DBA0025C023F0060E246ED8902332242EFCD739
:107DCA00010E2316233A2346234683502318BF0B5A
:107DDA002318836E25C023F0050E246ED890233213
:107DEA00242EFCD7010E2316233A23468350231848
:107DFA00DF0B2318836E25C023F0233A0F0E2316B8
:107E0A00010E2316233A83502318EF0B2318836E8F
:107E1A00030EE82EFED700F08380060EE82EFED76A
:107E2A0000F000F0839025C023F0D8902332D89038
:107E3A002332D8902332010E231623322332835061
:107E4A0023187F0B2318836E25C023F0D890233282
:107E5A00D8902332010E2316233A23462346835011
:107E6A002318BF0B2318836E25C023F0D890233222
:107E7A00010E2316233A234683502318DF0B2318B7
:107E8A00836E25C023F0010E2316233A835023184C
:107E9A00EF0B2318836E030EE82EFED700F08380C3
:107EAA00060EE82EFED700F000F083901D0E236E1A
:107EBA00910EE82EFED7232EFCD700F01200256E75
:107ECA0083908382236A25AE01D0232A010E2316CA
:107EDA0023322332835023187F0B2318836E25C045
:107EEA0023F0060E246ED8902332242EFCD7010EDE
:107EFA002316233A2346234683502318BF0B2318FD
:107F0A00836E25C023F0050E246ED8902332242ECA
:107F1A00FCD7010E2316233A234683502318DF0B7E
:107F2A002318836E25C023F0233A0F0E2316010E61
:107F3A002316233A83502318EF0B2318836E030E5C
:107F4A00E82EFED700F08380060EE82EFED700F05A
:107F5A0000F0839025C023F0D8902332D8902332A2
:107F6A00D8902332010E231623322332835023184A
:107F7A007F0B2318836E25C023F0D8902332D89024
:107F8A002332010E2316233A23462346835023180D
:107F9A00BF0B2318836E25C023F0D8902332010E1D
:107FAA002316233A234683502318DF0B2318836EA4
:107FBA0025C023F0010E2316233A83502318EF0B12
:107FCA002318836E030EE82EFED700F08380060E78
:107FDA00E82EFED700F000F08390060EE82EFED7BA
:107FEA0000F000F01D0E236E910EE82EFED7232E10
:067FFA00FCD700F01200AC
:020000040020DA
:08000000FFFFFFFFFFFFFFFF00
:020000040030CA
:0E000000FF081E1EFF8981FF0FC00FE00F409A
:00000001FF
