:0400000014EF3DF0CC
:107A1000D388D38AD38C1200000E8A6E000E816E3A
:107A20007F96F00E936E1200890EF66E7A0EF76E48
:107A3000000EF86E00EE01F010EE35F00900F5CF03
:107A4000EEFFE550E150FAE1406A000EF86E0001E9
:107A5000DDEF3DF0366E09D0000E05D0010E03D0EB
:107A6000020E01D0030E376E0DD03650070AD8B47F
:107A7000F9D70C0AD8B4F4D7060AD8B4EFD7030A5A
:087A8000D8B4EAD73750120018
:107A89003132334134353642373839432A30234489
:107A9900444947495445204C4120434C4156453AB5
:107AA90000436C6176652044696769746164613A71
:107AB90000303030303C6E0DD03950800F08D0394D
:107AC90050C00F05D03950940F02D03950D40F3D12
:107AD9006E0DD03C50010AD8B4EFD7030AD8B4EFE1
:107AE900D7010AD8B4EFD7070AD8B4EFD73D50CD9C
:107AF900EC3EF009D03AC0D9FF3BC0DAFFDF506451
:107B0900EC3FF03A4A3B2A3AC0D9FF3BC0DAFFDFE3
:107B190050D8B41200EFD70CEC3DF0000E3D6E00CA
:107B29000E3A6E000E3C6E000E3B6E000E3D6E036B
:107B39000E3D6401D025D03DC038F0010E396E38B4
:107B49002A02D0D8903936382EFCD73950FF0A810D
:107B59006E340E386EF20EE82EFED7382EFCD78121
:107B6900380F0B3C6E0F0E3C18D8A40AD03B2A04E0
:107B79000E3B18D8A403D03D68000E3B6E3D2AD7B2
:107B8900D73C502AEC3DF03A6E3D50040D010E38B9
:107B99006E000E396EF3503826F45039223A5001EE
:107BA9000DF3503824D96EF4503920DA6EDF5012B3
:107BB9000008EC3DF037EC3EF00C0ECDEC3EF00049
:107BC9000E396E110E3A6E000E3B6E010E5FEC3DE2
:107BD900F0C00ECDEC3EF0000E406E030E40640185
:107BE900D01FD090EC3DF03E6E4050010D320EF3A7
:107BF90024D96E000EF420DA6E3EC0DFFF070E3F77
:107C09006E170E3E6E6A0EE82EFED73E2EFCD73F4B
:107C19002EFAD700F000F02A0E64EC3FF0402ADD7E
:107C2900D7110E3F6E3C0E3E6ECB0EE82EFED73EB0
:107C39002EFCD73F2EFAD700F0010ECDEC3EF00016
:107C49000E396E220E3A6E000E3B6E010E5FEC3D50
:107C5900F0000E396E320E3A6E000E3B6E020E5F68
:107C6900EC3DF0FFD7959E959C959A9598959095A2
:107C790092839E839C839A8398839083921D0E3965
:107C89006E910EE82EFED7392EFCD700F01D0E3965
:107C99006E910EE82EFED7392EFCD700F01D0E3955
:107CA9006E910EE82EFED7392EFCD700F01D0E3945
:107CB9006E910EE82EFED7392EFCD700F01D0E3935
:107CC9006E910EE82EFED7392EFCD700F01D0E3925
:107CD9006E910EE82EFED7392EFCD700F0010E3A30
:107CE9006E20D0839E839C838A838883908392832A
:107CF9009E839C838A838883808392060EE82EFE66
:107D0900D700F000F0839E839C838A8388839083C5
:107D1900921D0E396E910EE82EFED7392EFCD70032
:107D2900F03A2A030E3A64DDD7839E839C838A83C3
:107D39009883908392839E839C838A83988380838C
:107D490092060EE82EFED700F000F0839E839C83F6
:107D59008A8398839083921D0E396E910EE82EFEC8
:107D6900D7392EFCD700F0280E3A6E3A50CDEC3EAA
:107D7900F0100E3A6E3A50CDEC3EF0010E3A6E3AE2
:107D890050CDEC3EF00F0E3A6E3A50CDEC3EF0126B
:107D990000386E83908392366A38AE01D0362A0154
:107DA9000E361636323632835036187F0B36188324
:107DB9006E38C036F0060E376ED8903632372EFC44
:107DC900D7010E3616363A3646364683503618BF30
:107DD9000B3618836E38C036F0050E376ED89036DC
:107DE90032372EFCD7010E3616363A3646835036D0
:107DF90018DF0B3618836E38C036F0363A0F0E3658
:107E090016010E3616363A83503618EF0B3618839C
:107E19006E030EE82EFED700F08380060EE82EFED4
:107E2900D700F000F0839038C036F0D8903632D8B9
:107E3900903632D8903632010E36163632363283C3
:107E49005036187F0B3618836E38C036F0D8903606
:107E590032D8903632010E3616363A3646364683D1
:107E6900503618BF0B3618836E38C036F0D89036A6
:107E790032010E3616363A364683503618DF0B363F
:107E890018836E38C036F0010E3616363A835036EE
:107E990018EF0B3618836E030EE82EFED700F08319
:107EA90080060EE82EFED700F000F083901D0E36F6
:107EB9006E910EE82EFED7362EFCD700F012003850
:107EC9006E83908382366A38AE01D0362A010E3627
:107ED9001636323632835036187F0B3618836E3891
:107EE900C036F0060E376ED8903632372EFCD701E1
:107EF9000E3616363A3646364683503618BF0B3696
:107F090018836E38C036F0050E376ED89036323782
:107F19002EFCD7010E3616363A364683503618DF10
:107F29000B3618836E38C036F0363A0F0E36160106
:107F39000E3616363A83503618EF0B3618836E0311
:107F49000EE82EFED700F08380060EE82EFED7003D
:107F5900F000F0839038C036F0D8903632D8903699
:107F690032D8903632010E361636323632835036D2
:107F7900187F0B3618836E38C036F0D8903632D851
:107F8900903632010E3616363A3646364683503624
:107F990018BF0B3618836E38C036F0D890363201C8
:107FA9000E3616363A364683503618DF0B361883A6
:107FB9006E38C036F0010E3616363A83503618EF51
:107FC9000B3618836E030EE82EFED700F083800669
:107FD9000EE82EFED700F000F08390060EE82EFE84
:107FE900D700F000F01D0E366E910EE82EFED73642
:077FF9002EFCD700F012007E
:020000040020DA
:08000000FFFFFFFFFFFFFFFF00
:020000040030CA
:0E000000FF081E1EFF8981FF0FC00FE00F409A
:00000001FF
