:04000000AFEF3FF02F
:107F3E003F065B4F666D7D077F6FD388D38AD38CE8
:107F4E00C180C182C184C1869380000E956E1200DD
:107F5E003E0EF66E7F0EF76E000EF86E00EE01F01E
:107F6E0010EE0AF00900F5CFEEFFE550E150FAE110
:107F7E000001DBEF3FF0000E0F6E000E0E6E09D00B
:107F8E00030E0D6E980EE82EFED70D2EFCD70E4A60
:107F9E000F2A0B500E5C0F50800A0D6E0C50800A8B
:107FAE000D58D8B01200ECD7000E106EA4EC3FF0B6
:107FBE001050010D010EF324D96E000EF420DA6E6E
:107FCE00DF50836E030E0C6EE80E0B6EC2EC3FF0AC
:107FDE0081A007D01028106E090E1064E9D7000E8C
:107FEE0006D01050D8A402D0090E01D01004106E85
:027FFE00DFD7CB
:020000040020DA
:08000000FFFFFFFFFFFFFFFF00
:020000040030CA
:0E00000000091E1EFF8185FF0FC00FE00F409C
:00000001FF
